:1000000000308A00B1280000FF00030E8301A10028
:100010000A08A0008A010408A2007708A300780853
:10002000A4007908A5007A08A600831383128C30F7
:100030008400801E1D288C1A32288B1E21280B1943
:100040003528220884002308F7002408F800250832
:10005000F9002608FA0020088A00210E8300FF0E0E
:100060007F0E09008A110A1266288A110A1238289E
:1000700083308100AB0A0319AC0AAC08031D442885
:100080002B082D020318462806104728061483164D
:1000900006108312AC08031D51282B082E020318EA
:1000A00053288610542886148316861083122B0832
:1000B000903C031D5F282C0B5F28AC01AB010B119A
:1000C0008A110A122128AD01AE0108008C1E662893
:1000D0001A08AA002A08753A03198128193A03193F
:1000E00086281E3A03198A28163A03198E28103AD0
:1000F00003199328053A03199528133A03199A28E6
:100100009E280A30AD002330AE009E282330AD007B
:10011000AE009E280A30AD00AE009E282330AD0010
:100120000A30AE009E2863209E281830AD00213092
:10013000AE009E280A30AD001C30AE008C128A1131
:100140000A12212800308316850080308700831230
:10015000AF0083168501FF30831285008A110A12D1
:100160001D2903081F3983008316031787150830DC
:100170000313990002309A00A63098009030831241
:1001800098003030AA00AC01AB010A30AD00143049
:10019000AE00FF30AF00831603170908C03989008D
:1001A00003131F129F120030031788008312870168
:1001B0008801890183130313A801A901831603177A
:1001C0000908C039890003131F129F12003003175A
:1001D0008800831203131F139F1383169F17831224
:1001E0001F149412AF122F088316870083122F1644
:1001F0002F08831687008312AF112F0883168700FC
:100200000130831294000030831694000108C03935
:1002100081000030F80083129200003083169200B3
:100220008312031787018801890103138B16831634
:100230008C16C03083128B04A22863201E29630011
:04400E00E22FFF3F5F
:00000001FF
;PIC16F887
;CRC=C45A  CREATED="25-Mar-19 10:51"
