:1000000002308A00B62A0000FF00030E8301A1001F
:100010000A08A0008A010408A2007708A300780853
:10002000A4007908A5007A08A600831383128B1E0A
:100030001B280B192C28220884002308F700240809
:10004000F8002508F9002608FA0020088A00210E89
:100050008300FF0E7F0E09008A110A122F288330B9
:100060008100A70A0319A80A0B118A110A121B287A
:10007000A808031D43282708273C031C4328831690
:10008000061083120614A808031D4E282708143CE6
:10009000031C4E288316861083128614A808031D9D
:1000A00055282708273C031863282808013C031C0F
:1000B0006328031D5F2827088F3C031C63288316D1
:1000C000061083120610A808031D6A282708143C8E
:1000D000031878282808013C031C7828031D74287D
:1000E00027088F3C031C78288316861083128610FD
:1000F0002708903C031D8028280B8028A801A70111
:10010000080083160911831209151030F700F70B48
:100110008728000083160911831209118E018F01AF
:100120008E01831689148312891C91282530900032
:10013000831689148312891898280F08FA000E086C
:10014000F7000F087A02031D9D287708AE007A0891
:10015000AF008E30F7002F08F8002E08F900FA01E2
:10016000F808031DBD287908F800F9010830F702E6
:10017000F808031DBD28F701C5280310F81BC42883
:10018000F90DF80DF703BD28F8137A08AC007908CB
:10019000AB007808AA007708A90090018A110A121A
:1001A000152B2E0803194129B600320803194129DD
:1001B000B6070318E2287F30B602031C4129031951
:1001C0004129E6288130B607031841293608F7008F
:1001D000F801F901FA012F08BA00BA173008B9007E
:1001E0003108B8001830B600B701381C0F2935089F
:1001F000FA07031C0129F90A031D0129F80A03194A
:10020000B7173408F907031C0829F80A0319B717A8
:100210003308B000B0173008F8070318B717B70D48
:10022000F80CF90CFA0CBA0CB90CB80C0310B60B9C
:10023000F4280130F70703184129F81B2629BA0DC5
:10024000FA0DF90DF80DF70303194129BA1F3729E3
:10025000FA0A031D3729F90A031D3729F80A031D75
:100260003729F80CF90CFA0CF70A031941292F0861
:10027000B7003308B706B71F3F29F8174529F81309
:100280004529F701F801F901FA018A110A12262B12
:100290002E0803190D2ABA00320803190D2ABA02D2
:1002A000031C57297F30BA0703180D2A5D298130B6
:1002B000BA02031C0D2A03190D2A3A08F700F801A7
:1002C000F901FA01B9012F08B800B8173008B700D2
:1002D0003108B6001930BA003508B6020318802973
:1002E0000130B70203188029B80203188029B90227
:1002F00003188029B90AB80AB70A3508B607B2291F
:100300003408B70203189B290130B80203189B294F
:10031000B90203189B29B90AB80A3408B707350887
:10032000B607031CB229B70A031DB229B80A031D78
:10033000B229B90AB22933088038B8020318B129A2
:100340000130B9020318B129B90A33088038B80757
:100350003408B707031C8F29B80A031D8F29B90A6F
:100360008F297A14BA0BB529C0290310B60DB70D21
:10037000B80DB90D0310FA0DF90DF80DBB0D6C2970
:100380003B1CC8290310F80CF90CFA0CBB0CCB2948
:10039000F70303190D2ABB1BF4290310B60DB70D83
:1003A000B80DB90D3508B6020318E0290130B702BF
:1003B0000318E029B8020318E029B902031C032A34
:1003C0003408B7020318EB290130B8020318EB29EF
:1003D000B902031C032A33088038B8020318F42931
:1003E0000130B902031C032AFA0A031D032AF90A81
:1003F000031D032AF80A031D032AF70A03190D2A0D
:10040000F80CF90CFA0C2F08BA003308BA06BA1F18
:100410000B2AF817112AF813112AF701F801F9012C
:10042000FA018A110A123D2B2F08B6003308B606CE
:10043000B61F1F2A03110310AF1B0314522A2F08E3
:10044000B6003208B7002E08B70203192D2AB61FCE
:10045000522A0308013A8300522A3308B7002F08B2
:10046000B7020319392AB61F522A0308013A83003A
:10047000522A3408B7003008B7020319452AB61FBC
:10048000522A0308013A8300522A3508B70031087E
:10049000B7020319512AB61F522A0308013A8300F2
:1004A000522A03108A110A12542BA808031D602A2D
:1004B0002708273C031C602A8316061083120614A3
:1004C000A808031D6B2A2708273C031C6B2A8316E8
:1004D000861083128614A808031D722A2708273C59
:1004E0000318802A2808013C031C802A031D7C2A4B
:1004F00027088F3C031C802A8316061083120610DF
:10050000A808031D872A2708273C0318952A2808CE
:10051000013C031C952A031D912A27088F3C031CCC
:10052000952A83168610831286102708903C031D97
:100530009D2A280B9D2AA801A7018A110A12592B6E
:100540002F308400831300080319B32A0630F80003
:10055000F701F70BA92AF80BA82A7B30F700F70B55
:10056000AF2A800BA62A8A110A125E2B03081F39B4
:100570008300A801A701FF30AD0083160317090807
:10058000C039890003131F129F120030031788001F
:1005900083128701880189018313003083160313B6
:1005A00087008312AD00831609108914091189117F
:1005B00003170908C039890003131F129F12003066
:1005C00003178800831203131F139F1383169F17AB
:1005D00083121F149412AD122D0883168700831204
:1005E0002D162D08831687008312AD112D08831652
:1005F00087000130831294000030831694000108B4
:10060000C0398100831290010030F8009200003060
:10061000831692008312031787018801890103134F
:100620008B16C0308B04382081282C08B1002B0891
:10063000B0002A08AF002908AE00CD30B500CC309C
:10064000B4004C30B3007E30B200D1287A08AC0040
:100650007908AB007808AA007708A9002C08B10037
:100660002B08B0002A08AF002908AE00B501B4017C
:100670006C30B3008430B20048297A08AC007908A5
:10068000AB007808AA007708A9002C08B1002B0855
:10069000B0002A08AF002908AE00B501B40120302F
:1006A000B3008430B200142A0318582B031D612BA9
:1006B000552A0430AE00FA30AF00A02AAE0B5B2BF7
:0806C000622B3820142B6300AB
:04400E00E22FFF3F5F
:00000001FF
;PIC16F887
;CRC=6274  CREATED="11-Mar-19 13:11"
