:1000000001308A00FD2900000030831688000910A5
:10001000891009118911103085008801FF30831281
:1000200088008A110A12122A2430840083130008DF
:10003000031927280630F800F701F70B1D28F80BE5
:100040001C287B30F700F70B2328800B1A280800A8
:100050000A30A400142083160911831209150A30EE
:10006000A400142083160911831209118E018F0137
:100070008E01831689148312891C3928253090003B
:10008000831689148312891840280F08FA000E0875
:10009000F7000F087A02031D45287708A4007A08A4
:1000A000A5008E30F7002508F8002408F900FA01B1
:1000B000F808031D65287908F800F9010830F702EF
:1000C000F808031D6528F7016D280310F81B6C283C
:1000D000F90DF80DF7036528F8137A08A3007908DD
:1000E000A2007808A1007708A00090018A110A12E6
:1000F000142A24080319E928AC0028080319E92860
:10010000AC0703188A287F30AC02031CE9280319C6
:10011000E9288E288130AC070318E9282C08F7005D
:10012000F801F901FA012508B000B0172608AF0060
:100130002708AE001830AC00AD012E1CB7282B08E4
:10014000FA07031CA928F90A031DA928F80A0319AC
:10015000AD172A08F907031CB028F80A0319AD17D0
:100160002908A600A6172608F8070318AD17AD0D35
:10017000F80CF90CFA0CB00CAF0CAE0C0310AC0B75
:100180009C280130F7070318E928F81BCE28B00D8A
:10019000FA0DF90DF80DF7030319E928B01FDF2850
:1001A000FA0A031DDF28F90A031DDF28F80A031DD8
:1001B000DF28F80CF90CFA0CF70A0319E9282508CE
:1001C000AD002908AD06AD1FE728F817ED28F81394
:1001D000ED28F701F801F901FA018A110A12252A1E
:1001E00024080319B529B00028080319B529B0025D
:1001F000031CFF287F30B0070318B529052981307B
:10020000B002031CB5290319B5293008F700F8011D
:10021000F901FA01AF012508AE00AE172608AD00BE
:100220002708AC001930B0002B08AC0203182829AD
:100230000130AD0203182829AE0203182829AF02A5
:1002400003182829AF0AAE0AAD0A2B08AC075A29B1
:100250002A08AD02031843290130AE0203184329CE
:10026000AF0203184329AF0AAE0A2A08AD072B08CC
:10027000AC07031C5A29AD0A031D5A29AE0A031DF7
:100280005A29AF0A5A2929088038AE020318592979
:100290000130AF0203185929AF0A29088038AE0788
:1002A0002A08AD07031C3729AE0A031D3729AF0AF8
:1002B00037297A14B00B5D2968290310AC0DAD0DF8
:1002C000AE0DAF0D0310FA0DF90DF80DB10D142997
:1002D000311C70290310F80CF90CFA0CB10C7329BD
:1002E000F7030319B529B11B9C290310AC0DAD0D03
:1002F000AE0DAF0D2B08AC02031888290130AD02FA
:1003000003188829AE0203188829AF02031CAB2901
:100310002A08AD02031893290130AE02031893296D
:10032000AF02031CAB2929088038AE0203189C29B0
:100330000130AF02031CAB29FA0A031DAB29F90AED
:10034000031DAB29F80A031DAB29F70A0319B529C8
:10035000F80CF90CFA0C2508B0002908B006B01FFB
:10036000B329F817B929F813B929F701F801F901E8
:10037000FA018A110A123C2A2508AC002908AC06A9
:10038000AC1FC72903110310A51B0314FA29250864
:10039000AC002808AD002408AD020319D529AC1F14
:1003A000FA290308013A8300FA292908AD00250833
:1003B000AD020319E129AC1FFA290308013A8300B1
:1003C000FA292A08AD002608AD020319ED29AC1F51
:1003D000FA290308013A8300FA292B08AD002708FF
:1003E000AD020319F929AC1FFA290308013A830069
:1003F000FA2903108A110A12532A03081F398300AD
:10040000831603170908C039890003131F129F12AE
:100410000030031788008312870188018901831344
:1004200003130428900128282308A7002208A60007
:100430002108A5002008A400CD30AB00CC30AA00D4
:100440004C30A9007E30A80079287A08A3007908EA
:10045000A2007808A1007708A0002308A7002208BE
:10046000A6002108A5002008A400AB01AA016C3059
:10047000A9008430A800F0287A08A3007908A20017
:100480007808A1007708A0002308A7002208A6008A
:100490002108A5002008A400AB01AA014830A9004A
:1004A0008430A800BC290318572A031D652A831627
:1004B0000512831205166430A40014208316051259
:0E04C000831205126430A4001420132A630076
:04400E00E22FFF3F5F
:00000001FF
;PIC16F887
;CRC=5C9B  CREATED="25-Feb-19 15:41"
