:1000000002308A00502A0000003083168800091050
:1000100089140911891187008312A500A500831690
:1000200087018312870183168801831288018A1150
:100030000A12672A251125088316870083120711E3
:100040000C30970083169B019C0101309D008312A8
:10005000A510250883168700831287100C309D0099
:100060000030F80006389200FF30831692008312A9
:1000700095019B017B309500FE309B0008008316A4
:100080000911831209151030F700F70B45280000FD
:1000900083160911831209118E018F018E018316B7
:1000A00089148312891C4F282530900083168914E7
:1000B0008312891856280F08FA000E08F7000F0857
:1000C0007A02031D5B287708A6007A08A7008E3005
:1000D000F7002708F8002608F900FA01F808031DC0
:1000E0007B287908F800F9010830F702F808031DA9
:1000F0007B28F70183280310F81B8228F90DF80DDF
:10010000F7037B28F8137A08A3007908A20078087F
:10011000A1007708A00090018A110A126A2A260815
:100120000319FF28AE002A080319FF28AE07031899
:10013000A0287F30AE02031CFF280319FF28A42843
:100140008130AE070318FF282E08F700F801F901E7
:10015000FA012708B200B2172808B1002908B00038
:100160001830AE00AF01301CCD282D08FA07031C53
:10017000BF28F90A031DBF28F80A0319AF172C0876
:10018000F907031CC628F80A0319AF172B08A800A3
:10019000A8172808F8070318AF17AF0DF80CF90CCB
:1001A000FA0CB20CB10CB00C0310AE0BB22801303B
:1001B000F7070318FF28F81BE428B20DFA0DF90D14
:1001C000F80DF7030319FF28B21FF528FA0A031DDB
:1001D000F528F90A031DF528F80A031DF528F80C7F
:1001E000F90CFA0CF70A0319FF282708AF002B08AF
:1001F000AF06AF1FFD28F8170329F8130329F701ED
:10020000F801F901FA018A110A127B2A260803195A
:10021000CB29B2002A080319CB29B202031C1529E5
:100220007F30B2070318CB291B298130B202031C8F
:10023000CB290319CB293208F700F801F901FA019B
:10024000B1012708B000B0172808AF002908AE0098
:100250001930B2002D08AE0203183E290130AF025A
:1002600003183E29B00203183E29B10203183E29A3
:10027000B10AB00AAF0A2D08AE0770292C08AF02E8
:10028000031859290130B00203185929B102031883
:100290005929B10AB00A2C08AF072D08AE07031C74
:1002A0007029AF0A031D7029B00A031D7029B10A15
:1002B00070292B088038B00203186F290130B10271
:1002C00003186F29B10A2B088038B0072C08AF0734
:1002D000031C4D29B00A031D4D29B10A4D297A147A
:1002E000B20B73297E290310AE0DAF0DB00DB10D09
:1002F0000310FA0DF90DF80DB30D2A29331C8629C8
:100300000310F80CF90CFA0CB30C8929F703031944
:10031000CB29B31BB2290310AE0DAF0DB00DB10D3B
:100320002D08AE0203189E290130AF0203189E2942
:10033000B00203189E29B102031CC1292C08AF0288
:100340000318A9290130B0020318A929B102031C1E
:10035000C1292B088038B0020318B2290130B1023C
:10036000031CC129FA0A031DC129F90A031DC12969
:10037000F80A031DC129F70A0319CB29F80CF90C57
:10038000FA0C2708B2002B08B206B21FC929F817C9
:10039000CF29F813CF29F701F801F901FA018A11E1
:1003A0000A12922A2708AE002B08AE06AE1FDD29DE
:1003B00003110310A71B0314102A2708AE002A08F4
:1003C000AF002608AF020319EB29AE1F102A03085D
:1003D000013A8300102A2B08AF002708AF02031947
:1003E000F729AE1F102A0308013A8300102A2C08AF
:1003F000AF002808AF020319032AAE1F102A030812
:10040000013A8300102A2D08AF002908AF02031912
:100410000F2AAE1F102A0308013A8300102A031086
:100420008A110A12A92A251125088316870083122A
:1004300007110C30970083169B019C0101309D0031
:100440008312A510250883168700831287100C30AD
:100450009D000030F80006389200FF3083169200AD
:10046000831295013C309B000430A600FA30A700AF
:10047000273084008313000803194B2A0630F80044
:10048000F701F70B412AF80B402A7B30F700F70BF6
:10049000472A800B3E2AA60B362A8A110A12AE2A58
:1004A00003081F398300FF30A500831603170908CE
:1004B000C039890003131F129F12003003178800F0
:1004C0008312870188018901831303130428900193
:1004D0001A203F282308A9002208A8002108A70005
:1004E0002008A600CD30AD00CC30AC004C30AB00C5
:1004F0007E30AA008F287A08A3007908A200780825
:10050000A1007708A0002308A9002208A80021085C
:10051000A7002008A600AD01AC016C30AB00843010
:10052000AA0006297A08A3007908A2007808A10089
:100530007708A0002308A9002208A8002108A70026
:100540002008A600AD01AC012030AB008430AA0029
:10055000D2290318AD2A031DAF2A132AB02A1A2064
:04056000692A6300A1
:04400E00E22FFF3F5F
:00000001FF
;PIC16F887
;CRC=35D4  CREATED="25-Feb-19 17:21"
