:1000000000308A0088280000EF352037E93165107C
:10001000F437A036E5327410F937750083160510F1
:10002000831205100830F80015280000F81726285C
:10003000F813A50C03180514031C051078172628BF
:100040007813F80B1928242800000514A730840021
:10005000840B28282B28F81B1828781B2028080038
:100060000B08A2008B13831603178C170C140000C7
:10007000000083120313A21B8B1703170C087F3990
:10008000031984280313A20003170D080313A30008
:1000900003170F080313A4002208A5000E2023084D
:1000A00003178D000313240803178F0003130B0895
:1000B000A5008B13831603178C170C140000000087
:1000C00083120313A51B8B1703170C0D0E0D7F391D
:1000D000031984280313A20003170D080313A300B8
:1000E00003170F080313A4002208A5000E202308FD
:1000F00003178D000313240803178F008D0A0319BB
:100100008F0A03133028031703138A110A12A72832
:1001100003081F3983008316051083120514A101FB
:10012000A001831603170908C039890003131F12A1
:100130009F1200300317880083128701880189010C
:10014000831304308D0000308F0003133028A7285C
:0201500063004A
:04400E00E22FFF3F5F
:00000001FF
;PIC16F887
;CRC=E31A  CREATED="04-Mar-19 13:49"
