:020000040000FA
:060000000A128A11FC2F18
:10076C00831203133A08BE003B08BF003C08C000CC
:10077C003D08C1000310400D410DC2004208C400E9
:10078C004408031DCA2BCB2BD52B0030BD000030E9
:10079C00BC000030BB000030BA00512C512C3A0880
:1007AC00BE003B08BF003C08C0003D08C1001F3024
:1007BC000310C10CC00CBF0CBE0CFF3E031DDE2B86
:1007CC003E08C2004208C300BC17FF30BA05FF3018
:1007DC00BB05FF30BC050030BD059630C402C41FFC
:1007EC00F82BF92B1E2C4408803A973E0318FF2B4C
:1007FC00002C0B2C0030BD000030BC000030BB00C6
:10080C000030BA00512C512C0B2C01300310BD0CB4
:10081C00BC0CBB0CBA0CFF3E031D0C2C0130BE00F3
:10082C003E08C407031D1B2C1C2C0B2C412C412CEB
:10083C0020304402031C232C242C3A2C0030BD0005
:10084C000030BC000030BB000030BA00512C512CE1
:10085C003A2C0130BE000310BA0DBB0DBC0DBD0D02
:10086C00BE0B312C0130C4024408031D3E2C3F2C1E
:10087C002F2C412C412C43080319452C462C512C70
:10088C00BA09BB09BC09BD09BA0A0319BB0A031989
:10089C00BC0A0319BD0A0800F80078080319572C84
:1008AC00582C6C2CF31F5B2C5C2C6C2C7009FA00F4
:1008BC007109FB007209FC007309FD00FA0A0319A7
:1008CC00FB0A0319FC0A0319FD0A742C7308FD00BA
:1008DC007208FC007108FB007008FA0073087204BF
:1008EC0071047004031D7B2C7C2C862C0030F300CF
:1008FC000030F2000030F1000030F000132D132D09
:10090C009630F4007408F900992C0130F400740846
:10091C00F90701300310FD0CFC0CFB0CFA0CFF3E2C
:10092C00031D902C992CFE307D05031D9E2C9F2CB5
:10093C008B2CBC2CBC2C0130F4007408F907013052
:10094C00FA07003003180130FB07003003180130A0
:10095C00FC07003003180130FD0701300310FD0CBB
:10096C00FC0CFB0CFA0CFF3E031DB42CFF307D0578
:10097C00031DC12CC22CA12CD02CD02C0130F9027F
:10098C000130F4000310FA0DFB0DFC0DFD0DF40B02
:10099C00C82CD02CFC1BD32CD42CDB2C0230790291
:1009AC000318D92CDA2CC42CDB2C7918DE2CDF2C78
:1009BC00E72CFF30FA05FF30FB057F30FC05FF30DC
:1009CC00FD050310F90C7908F400F501F601F701A7
:1009DC0018300310F40DF50DF60DF70DFF3E031D49
:1009EC00EF2C7408FA047508FB047608FC047708ED
:1009FC00FD0478080319032D042D0A2DF31F072D70
:100A0C00082D0A2DFD170A2D7D08F3007C08F20035
:100A1C007B08F1007A08F000132D080010308316C3
:100A2C000313860085011F3083120313C700713036
:100A3C00C6001D30C500C50B212DC60B212DC70BC3
:100A4C00212D282D10308312031390002D2D83128D
:100A5C0003138F018E0106141A3083120313C60080
:100A6C00F730C500C50B382DC60B382D3D2D831224
:100A7C0003130610412D061E442D452D412D101437
:100A8C00472D061A4A2D4B2D472D10100F08C90063
:100A9C000E08C8004808F0004908F1000030F11BAE
:100AAC00FF30F200F30001300A128A1152240A12AC
:100ABC008A11730883120313A7007208A600710829
:100ACC00A5007008A4004230A3006B30A200473090
:100ADC00A100AE30A0000A128A11F3250A128A1165
:100AEC00831203132308BD002208BC002108BB009D
:100AFC002008BA000A128A11B6230A128A1183122C
:100B0C0003133B08C9003A08C8004808013EC80056
:100B1C0049080318013E003EC9004908803AFF000D
:100B2C0080307F02031D9C2D1430480203189F2D2A
:100B3C00A02DA62D83120313851105168516A62D3F
:100B4C00831203134908803AFF0080307F02031D93
:100B5C00B12D14304802031CB42DB52DCA2D8312AF
:100B6C0003134908803AFF0080307F02031DC02D1B
:100B7C00333048020318C32DC42DCA2D831203131E
:100B8C00851505128516CA2D831203134908803A60
:100B9C00FF0080307F02031DD52D33304802031C2B
:100BAC00D82DD92DDF2D831203138515051685122B
:100BBC00DF2D053083120313C7000F30C600F03051
:100BCC00C500C50BE72DC60BE72DC70BE72D0000A5
:100BDC002D2D2D2D0A128A1100288312031327089C
:100BEC008039A8002808B1002708A8002807A90008
:100BFC002908B800A61F032E042E062E3814062E24
:100C0C00380803190A2E0B2E1C2E380A031D0F2E22
:100C1C00102E192E0030A7000030A6000030A500C1
:100C2C000030A400192EA617A701252E0030A7000E
:100C3C000030A6000030A5000030A400252E2308AB
:100C4C008039A8002808B1062308A8002807A900A5
:100C5C002908B900A21F332E342E362E3914362E05
:100C6C00390803193A2E3B2E4C2E390A031D3F2E00
:100C7C00402E492E0030A3000030A2000030A1000D
:100C8C000030A000492EA217A301542E0030A3005F
:100C9C000030A2000030A1000030A0002308220484
:100CAC0021042004031D5B2E5C2E762E0030A70041
:100CBC000030A6000030A5000030A4008030A6044F
:100CCC007F30A7043108A8002808A7042708A30030
:100CDC002608A2002508A1002408A000FB2FFB2F4A
:100CEC003808031D7A2E7B2E8D2E0030A700003085
:100CFC00A6000030A5000030A4002708A300260899
:100D0C00A2002508A1002408A000FB2FFB2F390806
:100D1C00A800A901A809A909A80A0319A90A380851
:100D2C002807AA0029080318290AAB002A087F3EC5
:100D3C00B2002B080318013E003EB3002708B00098
:100D4C002608AF002508AE002408AD000030A7002F
:100D5C000030A6000030A5000030A4000030B70021
:100D6C000030B6000030B5000030B400B9010C2FD3
:100D7C0039080319C22EC32EE52E0130A80003102A
:100D8C00AD0DAE0DAF0DB00DA80BC52E0130A800EA
:100D9C000310A40DA50DA60DA70DA80BCE2EB71FE5
:100DAC00D82ED92EDB2E2414DB2E0130A8000310F4
:100DBC00B40DB50DB60DB70DA80BDD2EE52E230821
:100DCC003002031DF32E22082F02031DF32E2108DF
:100DDC002E02031DF32E20082D02031CF62EF72ED7
:100DEC00072F37172008AD022108031C210FAE0274
:100DFC002208031C220FAF022308031C230FB0028E
:100E0C00072F0130A8002808B9070C2F1A30390217
:100E1C00031C112F122FBE2E132F30082F042E045B
:100E2C002D0403191A2F1B2F3D2F34143D2F3D2F4A
:100E3C000130A8000310A40DA50DA60DA70DA80B3D
:100E4C00202FB71F2A2F2B2F2D2F24142D2F01309D
:100E5C00A8000310B40DB50DB60DB70DA80B2F2FB0
:100E6C00FF30B2070318B30AFF30B3073D2FA61F9C
:100E7C00402F412F1E2F422FB901B71F462F472F4E
:100E8C00672FFF303405A800FF303505A900FF306F
:100E9C003605AA007F303705AB002B082A0429043D
:100EAC00280403195A2F5B2F5E2FB901B90A672F3B
:100EBC00241C612F622F672FB901B90A672F672F86
:100ECC00672F390803196B2F6C2F9F2F0130A40744
:100EDC00003003180130A507003003180130A607B5
:100EEC00003003180130A707271C7D2F7E2F9F2F62
:100EFC002408A8002508A9002608AA002708AB008A
:100F0C000130AC002B0DAB0CAA0CA90CA80CAC0B33
:100F1C00882F2B08A7002A08A6002908A500280856
:100F2C00A4000130B2070318B30A0030B3079F2F97
:100F3C009F2F3308803AFF0080307F02031DA82FBB
:100F4C00FF303202031CAB2FAC2FBB2FFF308312B0
:100F5C000313B2000030B3000030A7000030A6002D
:100F6C000030A5000030A400BB2F831203133308FC
:100F7C00803AFF0080307F02031DC62F0130320201
:100F8C000318C92FCA2FD72F83120313B201B30131
:100F9C000030A7000030A6000030A5000030A400EF
:100FAC00B101831203133208A8002808B800381CBA
:100FBC00E02FE12FE32FA617E72F7F30A80028089A
:100FCC00A6053808A8000310280CA9002908A700BA
:100FDC003108A8002808A7042708A3002608A200A7
:100FEC002508A1002408A000FB2F080083010A1289
:040FFC008A11142D15
:04400E00F2EFFFFFCF
:00000001FF
