:1000000000308A000428000003081F398300FF30F5
:10001000A000831603170908C039890003131F12B3
:100020009F1200300317880083128701880189011D
:10003000831300308316031387008312A0008316F6
:1000400088008312A000831687018312870183161C
:1000500088018312880120112008831687008312EB
:1000600007110C30970083169B019C0101309D0005
:100070008312A010200883168700831287100C308B
:100080009D000030F80006389200FF308316920081
:10009000831295019B017B309500FF309B004F2818
:0200A0006300FB
:04400E00E22FFF3F5F
:00000001FF
;PIC16F887
;CRC=1908  CREATED="25-Feb-19 15:16"
